{
  "contractName": "DEX",
  "abi": [
    {
      "inputs": [
        {
          "internalType": "contract ERC20Token",
          "name": "_token",
          "type": "address"
        }
      ],
      "stateMutability": "nonpayable",
      "type": "constructor"
    },
    {
      "anonymous": false,
      "inputs": [
        {
          "indexed": false,
          "internalType": "uint256",
          "name": "amount",
          "type": "uint256"
        }
      ],
      "name": "Bought",
      "type": "event"
    },
    {
      "anonymous": false,
      "inputs": [
        {
          "indexed": false,
          "internalType": "uint256",
          "name": "amount",
          "type": "uint256"
        }
      ],
      "name": "Sold",
      "type": "event"
    },
    {
      "inputs": [],
      "name": "name",
      "outputs": [
        {
          "internalType": "string",
          "name": "",
          "type": "string"
        }
      ],
      "stateMutability": "view",
      "type": "function",
      "constant": true
    },
    {
      "inputs": [],
      "name": "token",
      "outputs": [
        {
          "internalType": "contract ERC20Interface",
          "name": "",
          "type": "address"
        }
      ],
      "stateMutability": "view",
      "type": "function",
      "constant": true
    },
    {
      "inputs": [],
      "name": "buyTokens",
      "outputs": [],
      "stateMutability": "payable",
      "type": "function",
      "payable": true
    },
    {
      "inputs": [
        {
          "internalType": "uint256",
          "name": "amount",
          "type": "uint256"
        }
      ],
      "name": "sellTokens",
      "outputs": [],
      "stateMutability": "nonpayable",
      "type": "function"
    }
  ],
  "bytecode": "0x60806040526040518060400160405280600381526020017f44455800000000000000000000000000000000000000000000000000000000008152506001908051906020019062000051929190620000cc565b503480156200005f57600080fd5b5060405162000e5038038062000e50833981810160405281019062000085919062000193565b806000806101000a81548173ffffffffffffffffffffffffffffffffffffffff021916908373ffffffffffffffffffffffffffffffffffffffff1602179055505062000291565b828054620000da906200020d565b90600052602060002090601f016020900481019282620000fe57600085556200014a565b82601f106200011957805160ff19168380011785556200014a565b828001600101855582156200014a579182015b82811115620001495782518255916020019190600101906200012c565b5b5090506200015991906200015d565b5090565b5b80821115620001785760008160009055506001016200015e565b5090565b6000815190506200018d8162000277565b92915050565b600060208284031215620001ac57620001ab62000272565b5b6000620001bc848285016200017c565b91505092915050565b6000620001d282620001ed565b9050919050565b6000620001e682620001c5565b9050919050565b600073ffffffffffffffffffffffffffffffffffffffff82169050919050565b600060028204905060018216806200022657607f821691505b602082108114156200023d576200023c62000243565b5b50919050565b7f4e487b7100000000000000000000000000000000000000000000000000000000600052602260045260246000fd5b600080fd5b6200028281620001d9565b81146200028e57600080fd5b50565b610baf80620002a16000396000f3fe60806040526004361061003f5760003560e01c806306fdde03146100445780636c11bcd31461006f578063d0febe4c14610098578063fc0c546a146100a2575b600080fd5b34801561005057600080fd5b506100596100cd565b6040516100669190610880565b60405180910390f35b34801561007b57600080fd5b5061009660048036038101906100919190610675565b61015b565b005b6100a06103c3565b005b3480156100ae57600080fd5b506100b76105e5565b6040516100c49190610865565b60405180910390f35b600180546100da90610a0a565b80601f016020809104026020016040519081016040528092919081815260200182805461010690610a0a565b80156101535780601f1061012857610100808354040283529160200191610153565b820191906000526020600020905b81548152906001019060200180831161013657829003601f168201915b505050505081565b6000811161019e576040517f08c379a0000000000000000000000000000000000000000000000000000000008152600401610195906108c2565b60405180910390fd5b804710156101e1576040517f08c379a00000000000000000000000000000000000000000000000000000000081526004016101d8906108a2565b60405180910390fd5b60008060009054906101000a900473ffffffffffffffffffffffffffffffffffffffff1673ffffffffffffffffffffffffffffffffffffffff1663dd62ed3e33306040518363ffffffff1660e01b815260040161023f9291906107dc565b60206040518083038186803b15801561025757600080fd5b505afa15801561026b573d6000803e3d6000fd5b505050506040513d601f19601f8201168201806040525081019061028f91906106a2565b905060008054906101000a900473ffffffffffffffffffffffffffffffffffffffff1673ffffffffffffffffffffffffffffffffffffffff166323b872dd3330856040518463ffffffff1660e01b81526004016102ee93929190610805565b602060405180830381600087803b15801561030857600080fd5b505af115801561031c573d6000803e3d6000fd5b505050506040513d601f19601f820116820180604052508101906103409190610648565b503373ffffffffffffffffffffffffffffffffffffffff166108fc839081150290604051600060405180830381858888f19350505050158015610387573d6000803e3d6000fd5b507f92f64ca637d023f354075a4be751b169c1a8a9ccb6d33cdd0cb3520543995727826040516103b79190610922565b60405180910390a15050565b600034905060008060009054906101000a900473ffffffffffffffffffffffffffffffffffffffff1673ffffffffffffffffffffffffffffffffffffffff166370a08231306040518263ffffffff1660e01b815260040161042491906107c1565b60206040518083038186803b15801561043c57600080fd5b505afa158015610450573d6000803e3d6000fd5b505050506040513d601f19601f8201168201806040525081019061047491906106a2565b9050600082116104b9576040517f08c379a00000000000000000000000000000000000000000000000000000000081526004016104b090610902565b60405180910390fd5b808211156104fc576040517f08c379a00000000000000000000000000000000000000000000000000000000081526004016104f3906108e2565b60405180910390fd5b60008054906101000a900473ffffffffffffffffffffffffffffffffffffffff1673ffffffffffffffffffffffffffffffffffffffff1663a9059cbb33846040518363ffffffff1660e01b815260040161055792919061083c565b602060405180830381600087803b15801561057157600080fd5b505af1158015610585573d6000803e3d6000fd5b505050506040513d601f19601f820116820180604052508101906105a99190610648565b507f4e08ba899977cf7d4c2964bce71c6b9a7ef76ee5166a4c1249a1e08016e33ef1826040516105d99190610922565b60405180910390a15050565b60008054906101000a900473ffffffffffffffffffffffffffffffffffffffff1681565b60008151905061061881610b4b565b92915050565b60008135905061062d81610b62565b92915050565b60008151905061064281610b62565b92915050565b60006020828403121561065e5761065d610a6b565b5b600061066c84828501610609565b91505092915050565b60006020828403121561068b5761068a610a6b565b5b60006106998482850161061e565b91505092915050565b6000602082840312156106b8576106b7610a6b565b5b60006106c684828501610633565b91505092915050565b6106d881610959565b82525050565b6106e7816109a1565b82525050565b60006106f88261093d565b6107028185610948565b93506107128185602086016109d7565b61071b81610a70565b840191505092915050565b6000610733601f83610948565b915061073e82610a81565b602082019050919050565b6000610756602583610948565b915061076182610aaa565b604082019050919050565b6000610779602083610948565b915061078482610af9565b602082019050919050565b600061079c601b83610948565b91506107a782610b22565b602082019050919050565b6107bb81610997565b82525050565b60006020820190506107d660008301846106cf565b92915050565b60006040820190506107f160008301856106cf565b6107fe60208301846106cf565b9392505050565b600060608201905061081a60008301866106cf565b61082760208301856106cf565b61083460408301846107b2565b949350505050565b600060408201905061085160008301856106cf565b61085e60208301846107b2565b9392505050565b600060208201905061087a60008301846106de565b92915050565b6000602082019050818103600083015261089a81846106ed565b905092915050565b600060208201905081810360008301526108bb81610726565b9050919050565b600060208201905081810360008301526108db81610749565b9050919050565b600060208201905081810360008301526108fb8161076c565b9050919050565b6000602082019050818103600083015261091b8161078f565b9050919050565b600060208201905061093760008301846107b2565b92915050565b600081519050919050565b600082825260208201905092915050565b600061096482610977565b9050919050565b60008115159050919050565b600073ffffffffffffffffffffffffffffffffffffffff82169050919050565b6000819050919050565b60006109ac826109b3565b9050919050565b60006109be826109c5565b9050919050565b60006109d082610977565b9050919050565b60005b838110156109f55780820151818401526020810190506109da565b83811115610a04576000848401525b50505050565b60006002820490506001821680610a2257607f821691505b60208210811415610a3657610a35610a3c565b5b50919050565b7f4e487b7100000000000000000000000000000000000000000000000000000000600052602260045260246000fd5b600080fd5b6000601f19601f8301169050919050565b7f4e6f7420656e6f75676820657468657220696e20746865207265736572766500600082015250565b7f596f75206e65656420746f2073656c6c206174206c6561737420736f6d65207460008201527f6f6b656e73000000000000000000000000000000000000000000000000000000602082015250565b7f4e6f7420656e6f75676820746f6b656e7320696e207468652072657365727665600082015250565b7f596f75206e65656420746f2073656e6420736f6d652065746865720000000000600082015250565b610b548161096b565b8114610b5f57600080fd5b50565b610b6b81610997565b8114610b7657600080fd5b5056fea26469706673582212203197488f5e5b2da0d04b4d7361da75eee9d96cb803ec65cd3a368972d346c61664736f6c63430008070033",
  "immutableReferences": {},
  "source": "pragma solidity ^0.8.0;\r\n\r\nimport \"./ERC20Interface.sol\";\r\nimport \"./ERC20Token.sol\";\r\n\r\ncontract DEX {   \r\n\r\n    event Bought(uint256 amount);\r\n    event Sold(uint256 amount);\r\n\r\n\r\n    ERC20Interface public token;\r\n    string public name = 'DEX';\r\n\r\n    constructor(ERC20Token _token) public {\r\n        //token = new ERC20Token(/*\"SafekeepToken\", \"ERC20\", 18, 1000000*/);\r\n        token = _token;\r\n    } \r\n\r\n    function buyTokens() public payable { \r\n        uint256 amountTobuy = msg.value;\r\n        uint256 dexBalance = token.balanceOf(address(this));\r\n        require(amountTobuy > 0, \"You need to send some ether\");\r\n        require(amountTobuy <= dexBalance, \"Not enough tokens in the reserve\");\r\n        token.transfer(msg.sender, amountTobuy); \r\n        // token.transferFrom(address(this), msg.sender, amountTobuy);\r\n        emit Bought(amountTobuy);\r\n    }\r\n\r\n    function sellTokens(uint256 amount) public {\r\n        require(amount > 0, \"You need to sell at least some tokens\");\r\n        require(address(this).balance >= amount, \"Not enough ether in the reserve\");\r\n        uint256 allowance = token.allowance(msg.sender, address(this));\r\n      //  require(allowance >= amount, \"Check the token allowance\");\r\n        token.transferFrom(msg.sender, address(this), amount);\r\n        payable(msg.sender).transfer(amount);\r\n        emit Sold(amount);\r\n    } \r\n\r\n   /* function () external payable {   \r\n    } */\r\n} ",
  "sourcePath": "C:\\Users\\t-nobarz\\OneDrive - Microsoft\\Documents\\SmartContract\\contracts\\DEX.sol",
  "compiler": {
    "name": "solc",
    "version": "0.8.7+commit.e28d00a7.Emscripten.clang"
  },
  "schemaVersion": "3.4.3",
  "updatedAt": "2021-08-28T16:57:51.339Z",
  "networkType": "ethereum",
  "devdoc": {
    "kind": "dev",
    "methods": {},
    "version": 1
  },
  "userdoc": {
    "kind": "user",
    "methods": {},
    "version": 1
  }
}