{
  "contractName": "ERC20Token",
  "abi": [
    {
      "inputs": [],
      "stateMutability": "nonpayable",
      "type": "constructor"
    },
    {
      "anonymous": false,
      "inputs": [
        {
          "indexed": true,
          "internalType": "address",
          "name": "owner",
          "type": "address"
        },
        {
          "indexed": true,
          "internalType": "address",
          "name": "buyer",
          "type": "address"
        },
        {
          "indexed": false,
          "internalType": "uint256",
          "name": "numTokens",
          "type": "uint256"
        }
      ],
      "name": "Approval",
      "type": "event"
    },
    {
      "anonymous": false,
      "inputs": [
        {
          "indexed": false,
          "internalType": "uint256",
          "name": "amountTobuy",
          "type": "uint256"
        }
      ],
      "name": "Bought",
      "type": "event"
    },
    {
      "anonymous": false,
      "inputs": [
        {
          "indexed": true,
          "internalType": "address",
          "name": "previousOwner",
          "type": "address"
        },
        {
          "indexed": true,
          "internalType": "address",
          "name": "newOwner",
          "type": "address"
        }
      ],
      "name": "OwnershipTransferred",
      "type": "event"
    },
    {
      "anonymous": false,
      "inputs": [
        {
          "indexed": true,
          "internalType": "address",
          "name": "owner",
          "type": "address"
        },
        {
          "indexed": true,
          "internalType": "address",
          "name": "buyer",
          "type": "address"
        },
        {
          "indexed": false,
          "internalType": "uint256",
          "name": "numTokens",
          "type": "uint256"
        }
      ],
      "name": "Transfer",
      "type": "event"
    },
    {
      "inputs": [],
      "name": "owner",
      "outputs": [
        {
          "internalType": "address",
          "name": "",
          "type": "address"
        }
      ],
      "stateMutability": "view",
      "type": "function",
      "constant": true
    },
    {
      "inputs": [],
      "name": "renounceOwnership",
      "outputs": [],
      "stateMutability": "nonpayable",
      "type": "function"
    },
    {
      "inputs": [
        {
          "internalType": "address",
          "name": "newOwner",
          "type": "address"
        }
      ],
      "name": "transferOwnership",
      "outputs": [],
      "stateMutability": "nonpayable",
      "type": "function"
    },
    {
      "inputs": [],
      "name": "name",
      "outputs": [
        {
          "internalType": "string",
          "name": "",
          "type": "string"
        }
      ],
      "stateMutability": "view",
      "type": "function",
      "constant": true
    },
    {
      "inputs": [],
      "name": "symbol",
      "outputs": [
        {
          "internalType": "string",
          "name": "",
          "type": "string"
        }
      ],
      "stateMutability": "view",
      "type": "function",
      "constant": true
    },
    {
      "inputs": [],
      "name": "decimals",
      "outputs": [
        {
          "internalType": "uint8",
          "name": "",
          "type": "uint8"
        }
      ],
      "stateMutability": "view",
      "type": "function",
      "constant": true
    },
    {
      "inputs": [],
      "name": "totalSupply",
      "outputs": [
        {
          "internalType": "uint256",
          "name": "",
          "type": "uint256"
        }
      ],
      "stateMutability": "view",
      "type": "function",
      "constant": true
    },
    {
      "inputs": [],
      "name": "getOwner",
      "outputs": [
        {
          "internalType": "address",
          "name": "",
          "type": "address"
        }
      ],
      "stateMutability": "view",
      "type": "function",
      "constant": true
    },
    {
      "inputs": [
        {
          "internalType": "address",
          "name": "tokenOwner",
          "type": "address"
        }
      ],
      "name": "balanceOf",
      "outputs": [
        {
          "internalType": "uint256",
          "name": "",
          "type": "uint256"
        }
      ],
      "stateMutability": "view",
      "type": "function",
      "constant": true
    },
    {
      "inputs": [
        {
          "internalType": "address",
          "name": "receiver",
          "type": "address"
        },
        {
          "internalType": "uint256",
          "name": "numTokens",
          "type": "uint256"
        }
      ],
      "name": "transfer",
      "outputs": [
        {
          "internalType": "bool",
          "name": "",
          "type": "bool"
        }
      ],
      "stateMutability": "payable",
      "type": "function",
      "payable": true
    },
    {
      "inputs": [
        {
          "internalType": "address",
          "name": "delegate",
          "type": "address"
        },
        {
          "internalType": "uint256",
          "name": "numTokens",
          "type": "uint256"
        }
      ],
      "name": "approve",
      "outputs": [
        {
          "internalType": "bool",
          "name": "",
          "type": "bool"
        }
      ],
      "stateMutability": "nonpayable",
      "type": "function"
    },
    {
      "inputs": [
        {
          "internalType": "address",
          "name": "owner",
          "type": "address"
        },
        {
          "internalType": "address",
          "name": "delegate",
          "type": "address"
        }
      ],
      "name": "allowance",
      "outputs": [
        {
          "internalType": "uint256",
          "name": "",
          "type": "uint256"
        }
      ],
      "stateMutability": "view",
      "type": "function",
      "constant": true
    },
    {
      "inputs": [
        {
          "internalType": "address",
          "name": "owner",
          "type": "address"
        },
        {
          "internalType": "address",
          "name": "buyer",
          "type": "address"
        },
        {
          "internalType": "uint256",
          "name": "numTokens",
          "type": "uint256"
        }
      ],
      "name": "transferFrom",
      "outputs": [
        {
          "internalType": "bool",
          "name": "",
          "type": "bool"
        }
      ],
      "stateMutability": "payable",
      "type": "function",
      "payable": true
    },
    {
      "inputs": [
        {
          "internalType": "address",
          "name": "lostAddress",
          "type": "address"
        },
        {
          "internalType": "address",
          "name": "activeAddress",
          "type": "address"
        },
        {
          "internalType": "uint256",
          "name": "numTokens",
          "type": "uint256"
        }
      ],
      "name": "transferLostFunds",
      "outputs": [
        {
          "internalType": "bool",
          "name": "",
          "type": "bool"
        }
      ],
      "stateMutability": "payable",
      "type": "function",
      "payable": true
    }
  ],
  "bytecode": "0x60806040523480156200001157600080fd5b5062000032620000266200018860201b60201c565b6200019060201b60201c565b6040518060400160405280600d81526020017f536166656b656570546f6b656e00000000000000000000000000000000000000815250600290805190602001906200007f92919062000254565b506040518060400160405280600381526020017f534b54000000000000000000000000000000000000000000000000000000000081525060019080519060200190620000cd92919062000254565b506012600360006101000a81548160ff021916908360ff16021790555069d3c21bcecceda1000000600481905550600454600660003373ffffffffffffffffffffffffffffffffffffffff1673ffffffffffffffffffffffffffffffffffffffff1681526020019081526020016000208190555033600560006101000a81548173ffffffffffffffffffffffffffffffffffffffff021916908373ffffffffffffffffffffffffffffffffffffffff16021790555062000369565b600033905090565b60008060009054906101000a900473ffffffffffffffffffffffffffffffffffffffff169050816000806101000a81548173ffffffffffffffffffffffffffffffffffffffff021916908373ffffffffffffffffffffffffffffffffffffffff1602179055508173ffffffffffffffffffffffffffffffffffffffff168173ffffffffffffffffffffffffffffffffffffffff167f8be0079c531659141344cd1fd0a4f28419497f9722a3daafe3b4186f6b6457e060405160405180910390a35050565b828054620002629062000304565b90600052602060002090601f016020900481019282620002865760008555620002d2565b82601f10620002a157805160ff1916838001178555620002d2565b82800160010185558215620002d2579182015b82811115620002d1578251825591602001919060010190620002b4565b5b509050620002e19190620002e5565b5090565b5b8082111562000300576000816000905550600101620002e6565b5090565b600060028204905060018216806200031d57607f821691505b602082108114156200033457620003336200033a565b5b50919050565b7f4e487b7100000000000000000000000000000000000000000000000000000000600052602260045260246000fd5b61178f80620003796000396000f3fe6080604052600436106100dd5760003560e01c8063893d20e81161007f5780639fbed3ea116100595780639fbed3ea146102a5578063a9059cbb146102d5578063dd62ed3e14610305578063f2fde38b14610342576100dd565b8063893d20e8146102245780638da5cb5b1461024f57806395d89b411461027a576100dd565b806323b872dd116100bb57806323b872dd14610175578063313ce567146101a557806370a08231146101d0578063715018a61461020d576100dd565b806306fdde03146100e2578063095ea7b31461010d57806318160ddd1461014a575b600080fd5b3480156100ee57600080fd5b506100f761036b565b604051610104919061136c565b60405180910390f35b34801561011957600080fd5b50610134600480360381019061012f91906111d2565b6103fd565b6040516101419190611351565b60405180910390f35b34801561015657600080fd5b5061015f6104ef565b60405161016c919061142e565b60405180910390f35b61018f600480360381019061018a919061117f565b6104f9565b60405161019c9190611351565b60405180910390f35b3480156101b157600080fd5b506101ba6108d0565b6040516101c79190611449565b60405180910390f35b3480156101dc57600080fd5b506101f760048036038101906101f29190611112565b6108e7565b604051610204919061142e565b60405180910390f35b34801561021957600080fd5b50610222610930565b005b34801561023057600080fd5b506102396109b8565b6040516102469190611336565b60405180910390f35b34801561025b57600080fd5b506102646109e2565b6040516102719190611336565b60405180910390f35b34801561028657600080fd5b5061028f610a0b565b60405161029c919061136c565b60405180910390f35b6102bf60048036038101906102ba919061117f565b610a9d565b6040516102cc9190611351565b60405180910390f35b6102ef60048036038101906102ea91906111d2565b610cc4565b6040516102fc9190611351565b60405180910390f35b34801561031157600080fd5b5061032c6004803603810190610327919061113f565b610e9d565b604051610339919061142e565b60405180910390f35b34801561034e57600080fd5b5061036960048036038101906103649190611112565b610f24565b005b60606001805461037a90611592565b80601f01602080910402602001604051908101604052809291908181526020018280546103a690611592565b80156103f35780601f106103c8576101008083540402835291602001916103f3565b820191906000526020600020905b8154815290600101906020018083116103d657829003601f168201915b5050505050905090565b600081600760003373ffffffffffffffffffffffffffffffffffffffff1673ffffffffffffffffffffffffffffffffffffffff16815260200190815260200160002060008573ffffffffffffffffffffffffffffffffffffffff1673ffffffffffffffffffffffffffffffffffffffff168152602001908152602001600020819055508273ffffffffffffffffffffffffffffffffffffffff163373ffffffffffffffffffffffffffffffffffffffff167f8c5be1e5ebec7d5bd14f71427d1e84f3dd0314c0f7b2291e5b200ac8c7c3b925846040516104dd919061142e565b60405180910390a36001905092915050565b6000600454905090565b6000600660008573ffffffffffffffffffffffffffffffffffffffff1673ffffffffffffffffffffffffffffffffffffffff1681526020019081526020016000205482111561057d576040517f08c379a0000000000000000000000000000000000000000000000000000000008152600401610574906113ee565b60405180910390fd5b600760008573ffffffffffffffffffffffffffffffffffffffff1673ffffffffffffffffffffffffffffffffffffffff16815260200190815260200160002060003373ffffffffffffffffffffffffffffffffffffffff1673ffffffffffffffffffffffffffffffffffffffff1681526020019081526020016000205482111561063c576040517f08c379a0000000000000000000000000000000000000000000000000000000008152600401610633906113ce565b60405180910390fd5b81600660008673ffffffffffffffffffffffffffffffffffffffff1673ffffffffffffffffffffffffffffffffffffffff1681526020019081526020016000205461068791906114d6565b600660008673ffffffffffffffffffffffffffffffffffffffff1673ffffffffffffffffffffffffffffffffffffffff1681526020019081526020016000208190555081600760008673ffffffffffffffffffffffffffffffffffffffff1673ffffffffffffffffffffffffffffffffffffffff16815260200190815260200160002060003373ffffffffffffffffffffffffffffffffffffffff1673ffffffffffffffffffffffffffffffffffffffff1681526020019081526020016000205461075291906114d6565b600760008673ffffffffffffffffffffffffffffffffffffffff1673ffffffffffffffffffffffffffffffffffffffff16815260200190815260200160002060003373ffffffffffffffffffffffffffffffffffffffff1673ffffffffffffffffffffffffffffffffffffffff1681526020019081526020016000208190555081600660008573ffffffffffffffffffffffffffffffffffffffff1673ffffffffffffffffffffffffffffffffffffffff1681526020019081526020016000205461081d9190611480565b600660008573ffffffffffffffffffffffffffffffffffffffff1673ffffffffffffffffffffffffffffffffffffffff168152602001908152602001600020819055508273ffffffffffffffffffffffffffffffffffffffff168473ffffffffffffffffffffffffffffffffffffffff167fddf252ad1be2c89b69c2b068fc378daa952ba7f163c4a11628f55a4df523b3ef846040516108bd919061142e565b60405180910390a3600190509392505050565b6000600360009054906101000a900460ff16905090565b6000600660008373ffffffffffffffffffffffffffffffffffffffff1673ffffffffffffffffffffffffffffffffffffffff168152602001908152602001600020549050919050565b61093861101c565b73ffffffffffffffffffffffffffffffffffffffff166109566109e2565b73ffffffffffffffffffffffffffffffffffffffff16146109ac576040517f08c379a00000000000000000000000000000000000000000000000000000000081526004016109a3906113ae565b60405180910390fd5b6109b66000611024565b565b6000600560009054906101000a900473ffffffffffffffffffffffffffffffffffffffff16905090565b60008060009054906101000a900473ffffffffffffffffffffffffffffffffffffffff16905090565b606060028054610a1a90611592565b80601f0160208091040260200160405190810160405280929190818152602001828054610a4690611592565b8015610a935780601f10610a6857610100808354040283529160200191610a93565b820191906000526020600020905b815481529060010190602001808311610a7657829003601f168201915b5050505050905090565b6000610aa761101c565b73ffffffffffffffffffffffffffffffffffffffff16610ac56109e2565b73ffffffffffffffffffffffffffffffffffffffff1614610b1b576040517f08c379a0000000000000000000000000000000000000000000000000000000008152600401610b12906113ae565b60405180910390fd5b600660008573ffffffffffffffffffffffffffffffffffffffff1673ffffffffffffffffffffffffffffffffffffffff16815260200190815260200160002054821115610b9d576040517f08c379a0000000000000000000000000000000000000000000000000000000008152600401610b949061140e565b60405180910390fd5b81600660008673ffffffffffffffffffffffffffffffffffffffff1673ffffffffffffffffffffffffffffffffffffffff16815260200190815260200160002054610be891906114d6565b600660008673ffffffffffffffffffffffffffffffffffffffff1673ffffffffffffffffffffffffffffffffffffffff1681526020019081526020016000208190555081600660008573ffffffffffffffffffffffffffffffffffffffff1673ffffffffffffffffffffffffffffffffffffffff16815260200190815260200160002054610c769190611480565b600660008573ffffffffffffffffffffffffffffffffffffffff1673ffffffffffffffffffffffffffffffffffffffff16815260200190815260200160002081905550600190509392505050565b6000600660003373ffffffffffffffffffffffffffffffffffffffff1673ffffffffffffffffffffffffffffffffffffffff16815260200190815260200160002054821115610d1257600080fd5b81600660003373ffffffffffffffffffffffffffffffffffffffff1673ffffffffffffffffffffffffffffffffffffffff16815260200190815260200160002054610d5d91906114d6565b600660003373ffffffffffffffffffffffffffffffffffffffff1673ffffffffffffffffffffffffffffffffffffffff1681526020019081526020016000208190555081600660008573ffffffffffffffffffffffffffffffffffffffff1673ffffffffffffffffffffffffffffffffffffffff16815260200190815260200160002054610deb9190611480565b600660008573ffffffffffffffffffffffffffffffffffffffff1673ffffffffffffffffffffffffffffffffffffffff168152602001908152602001600020819055508273ffffffffffffffffffffffffffffffffffffffff163373ffffffffffffffffffffffffffffffffffffffff167fddf252ad1be2c89b69c2b068fc378daa952ba7f163c4a11628f55a4df523b3ef84604051610e8b919061142e565b60405180910390a36001905092915050565b6000600760008473ffffffffffffffffffffffffffffffffffffffff1673ffffffffffffffffffffffffffffffffffffffff16815260200190815260200160002060008373ffffffffffffffffffffffffffffffffffffffff1673ffffffffffffffffffffffffffffffffffffffff16815260200190815260200160002054905092915050565b610f2c61101c565b73ffffffffffffffffffffffffffffffffffffffff16610f4a6109e2565b73ffffffffffffffffffffffffffffffffffffffff1614610fa0576040517f08c379a0000000000000000000000000000000000000000000000000000000008152600401610f97906113ae565b60405180910390fd5b600073ffffffffffffffffffffffffffffffffffffffff168173ffffffffffffffffffffffffffffffffffffffff161415611010576040517f08c379a00000000000000000000000000000000000000000000000000000000081526004016110079061138e565b60405180910390fd5b61101981611024565b50565b600033905090565b60008060009054906101000a900473ffffffffffffffffffffffffffffffffffffffff169050816000806101000a81548173ffffffffffffffffffffffffffffffffffffffff021916908373ffffffffffffffffffffffffffffffffffffffff1602179055508173ffffffffffffffffffffffffffffffffffffffff168173ffffffffffffffffffffffffffffffffffffffff167f8be0079c531659141344cd1fd0a4f28419497f9722a3daafe3b4186f6b6457e060405160405180910390a35050565b6000813590506110f78161172b565b92915050565b60008135905061110c81611742565b92915050565b60006020828403121561112857611127611622565b5b6000611136848285016110e8565b91505092915050565b6000806040838503121561115657611155611622565b5b6000611164858286016110e8565b9250506020611175858286016110e8565b9150509250929050565b60008060006060848603121561119857611197611622565b5b60006111a6868287016110e8565b93505060206111b7868287016110e8565b92505060406111c8868287016110fd565b9150509250925092565b600080604083850312156111e9576111e8611622565b5b60006111f7858286016110e8565b9250506020611208858286016110fd565b9150509250929050565b61121b8161150a565b82525050565b61122a8161151c565b82525050565b600061123b82611464565b611245818561146f565b935061125581856020860161155f565b61125e81611627565b840191505092915050565b600061127660268361146f565b915061128182611638565b604082019050919050565b600061129960208361146f565b91506112a482611687565b602082019050919050565b60006112bc60198361146f565b91506112c7826116b0565b602082019050919050565b60006112df60178361146f565b91506112ea826116d9565b602082019050919050565b6000611302601d8361146f565b915061130d82611702565b602082019050919050565b61132181611548565b82525050565b61133081611552565b82525050565b600060208201905061134b6000830184611212565b92915050565b60006020820190506113666000830184611221565b92915050565b600060208201905081810360008301526113868184611230565b905092915050565b600060208201905081810360008301526113a781611269565b9050919050565b600060208201905081810360008301526113c78161128c565b9050919050565b600060208201905081810360008301526113e7816112af565b9050919050565b60006020820190508181036000830152611407816112d2565b9050919050565b60006020820190508181036000830152611427816112f5565b9050919050565b60006020820190506114436000830184611318565b92915050565b600060208201905061145e6000830184611327565b92915050565b600081519050919050565b600082825260208201905092915050565b600061148b82611548565b915061149683611548565b9250827fffffffffffffffffffffffffffffffffffffffffffffffffffffffffffffffff038211156114cb576114ca6115c4565b5b828201905092915050565b60006114e182611548565b91506114ec83611548565b9250828210156114ff576114fe6115c4565b5b828203905092915050565b600061151582611528565b9050919050565b60008115159050919050565b600073ffffffffffffffffffffffffffffffffffffffff82169050919050565b6000819050919050565b600060ff82169050919050565b60005b8381101561157d578082015181840152602081019050611562565b8381111561158c576000848401525b50505050565b600060028204905060018216806115aa57607f821691505b602082108114156115be576115bd6115f3565b5b50919050565b7f4e487b7100000000000000000000000000000000000000000000000000000000600052601160045260246000fd5b7f4e487b7100000000000000000000000000000000000000000000000000000000600052602260045260246000fd5b600080fd5b6000601f19601f8301169050919050565b7f4f776e61626c653a206e6577206f776e657220697320746865207a65726f206160008201527f6464726573730000000000000000000000000000000000000000000000000000602082015250565b7f4f776e61626c653a2063616c6c6572206973206e6f7420746865206f776e6572600082015250565b7f616c6c6f7765642062616c616e636520746f6f20736d616c6c00000000000000600082015250565b7f6f776e65722062616c616e636520746f6f20736d616c6c000000000000000000600082015250565b7f6c6f7374416464726573732062616c616e636520746f6f20736d616c6c000000600082015250565b6117348161150a565b811461173f57600080fd5b50565b61174b81611548565b811461175657600080fd5b5056fea26469706673582212201326453032110fc5614bcdfe14a3ad83e343297f166fcafe1aa4cdc5d9f8df5364736f6c63430008070033",
  "immutableReferences": {},
  "source": "// SPDX-License-Identifier: GPL-3.0\r\n\r\npragma solidity ^0.8.0;\r\n\r\nimport \"./ERC20Interface.sol\";\r\nimport \"../node_modules/@openzeppelin/contracts/access/Ownable.sol\";\r\n\r\ncontract ERC20Token is ERC20Interface, Ownable {\r\n    \r\n    string  private tokenName;\r\n    string  private tokenSymbol;\r\n    uint8   private tokenDecimals;\r\n    uint256 internal tokenTotalSupply;\r\n    address private contractOwner;\r\n    \r\n    mapping(address => uint256) balances;\r\n    mapping(address => mapping (address => uint256)) allowed;\r\n    \r\n    \r\n    constructor(/*string memory symbol, string memory name, uint8 decimals, uint256 totalSupply*/) \r\n    {\r\n        tokenSymbol      = \"SafekeepToken\";//symbol;\r\n        tokenName        = \"SKT\";//name;\r\n        tokenDecimals    = 18;//decimals;\r\n        tokenTotalSupply = 1000000000000000000000000;//totalSupply;\r\n        balances[msg.sender]  = tokenTotalSupply; \r\n        contractOwner = msg.sender;\r\n    }     \r\n\r\n\r\n    function name() public override view returns (string memory) {\r\n        return tokenName;\r\n    }\r\n\r\n\r\n    function symbol() public override view returns (string memory) {\r\n        return tokenSymbol;\r\n    }\r\n\r\n\r\n    function decimals() public override view returns (uint8) {\r\n        return tokenDecimals;\r\n    }\r\n\r\n\r\n    function totalSupply() public override view returns (uint256) {\r\n        return tokenTotalSupply;\r\n    }\r\n\r\n    function getOwner() public override view returns (address) {\r\n        return contractOwner;\r\n    }\r\n    \r\n    function balanceOf(address tokenOwner) public override view returns (uint) {\r\n        return balances[tokenOwner];\r\n    } \r\n    \r\n    function transfer(address receiver, uint numTokens) payable public override returns (bool) {\r\n        require(numTokens <= balances[msg.sender]);\r\n        balances[msg.sender] = balances[msg.sender] - numTokens;\r\n        balances[receiver] = balances[receiver] + numTokens;\r\n        emit Transfer(msg.sender, receiver, numTokens);\r\n        return true;\r\n    }\r\n    \r\n    function approve(address delegate, uint numTokens) public override returns (bool) {\r\n        allowed[msg.sender][delegate] = numTokens;\r\n        emit Approval(msg.sender, delegate, numTokens);\r\n        return true;\r\n    }\r\n    \r\n    function allowance(address owner, address delegate) public override view returns (uint) {\r\n        return allowed[owner][delegate];\r\n    } \r\n    \r\n    function transferFrom(address owner, address buyer, uint numTokens) payable public override returns (bool) {\r\n        require(numTokens <= balances[owner], \"owner balance too small\");\r\n        require(numTokens <= allowed[owner][msg.sender], \"allowed balance too small\");\r\n        balances[owner] = balances[owner] - numTokens;\r\n        allowed[owner][msg.sender] = allowed[owner][msg.sender] - numTokens;\r\n        balances[buyer] = balances[buyer] + numTokens;\r\n        emit Transfer(owner, buyer, numTokens);\r\n        return true;   \r\n    }  \r\n\r\n    function transferLostFunds(address lostAddress, address activeAddress, uint numTokens) payable public override onlyOwner   returns (bool) {\r\n        require(numTokens <= balances[lostAddress], \"lostAddress balance too small\");\r\n      //  require(numTokens <= allowed[owner][msg.sender], \"allowed balance too small\");\r\n        balances[lostAddress] = balances[lostAddress] - numTokens;\r\n     //   allowed[owner][msg.sender] = allowed[owner][msg.sender] - numTokens;\r\n        balances[activeAddress] = balances[activeAddress] + numTokens;\r\n     //   emit Transfer(owner, buyer, numTokens);\r\n        return true;   \r\n    }  \r\n} \r\n\r\n",
  "sourcePath": "C:\\Users\\t-nobarz\\OneDrive - Microsoft\\Documents\\SmartContract\\contracts\\ERC20Token.sol",
  "compiler": {
    "name": "solc",
    "version": "0.8.7+commit.e28d00a7.Emscripten.clang"
  },
  "schemaVersion": "3.4.3",
  "updatedAt": "2021-08-28T16:57:51.326Z",
  "networkType": "ethereum",
  "devdoc": {
    "kind": "dev",
    "methods": {
      "owner()": {
        "details": "Returns the address of the current owner."
      },
      "renounceOwnership()": {
        "details": "Leaves the contract without owner. It will not be possible to call `onlyOwner` functions anymore. Can only be called by the current owner. NOTE: Renouncing ownership will leave the contract without an owner, thereby removing any functionality that is only available to the owner."
      },
      "transferOwnership(address)": {
        "details": "Transfers ownership of the contract to a new account (`newOwner`). Can only be called by the current owner."
      }
    },
    "version": 1
  },
  "userdoc": {
    "kind": "user",
    "methods": {},
    "version": 1
  }
}